:1000000000200020F5010000FB010000FF010000BE
:10001000490200004D0200009502000000000000AF
:10002000000000000000000000000000DD020000F1
:10003000E102000000000000E5020000E90200000B
:10004000F9020000F9020000F9020000F9020000C4
:10005000F9020000F9020000F9020000F9020000B4
:10006000F9020000F902000000000000F90200009F
:10007000F9020000F9020000F9020000F902000094
:10008000F9020000F9020000F9020000F902000084
:10009000F9020000F9020000F9020000F902000074
:1000A000F9020000F9020000F9020000F902000064
:1000B000F9020000F9020000F9020000F902000054
:1000C000F9020000F9020000F9020000F902000044
:1000D000F9020000F9020000F9020000000000002F
:1000E00000B583B000F066F9304B314A1360314AF5
:1000F0001360314B314A03E0116819600433043254
:100100002F498B42F8D32A4B1A682E4B9A4200D0C3
:10011000FEE7284B1A682C4B9A42F9D1234B2B4A05
:1001200013602B4A13602B4B02E000221A60043349
:10013000294A9342F9D3254B1B6813B9244B1B68FA
:1001400003B1FEE700F042F9694601A800F00EF99C
:10015000224B234CE41AA4100025AC4214DC214BA2
:10016000214CE41AA4100025AC4213DC009901983C
:1001700000F050FA05461D4B1D4CE41AA410002C4B
:100180000EDC284600F0CEF8144B53F82530984783
:100190000135E2E7134B53F8253098470135E3E783
:1001A000013C124B53F824309847E8E7BABADECA4C
:1001B00000000020700000200000002080100000DF
:1001C000740000207856341232547698740000205F
:1001D00018010020740000201C01002024030000EE
:1001E0002403000024030000240300002403000073
:1001F0002403000008B5FFF773FF00BEFEE71EF002
:10020000040F0CBFEFF30880EFF309807146374A03
:1002100010472DE9F04182B004468846084B5E6BDA
:100220009F6B9D6A074800F0A9F8CDF800803B4617
:1002300032462946204600F0CDF800BEFEE700BF5A
:1002400000ED00E02010000000BEFEE71EF0040FED
:100250000CBFEFF30880EFF309807146244A104782
:100260002DE9F04182B004468846084B5E6B9F6BD7
:100270009D6A074800F082F8CDF800803B46324680
:100280002946204600F0A6F800BEFEE700ED00E09B
:10029000301000001EF0040F0CBFEFF30880EFF3E6
:1002A00009807146134A10472DE9F04182B0044697
:1002B0008846084B5E6B9F6B9D6A074800F05EF8AE
:1002C000CDF800803B4632462946204600F082F8B1
:1002D00000BEFEE700ED00E03C10000000BEFEE7BF
:1002E00000BEFEE700BEFEE77047000013020000FC
:0A02F00061020000A9020000FEE711
:1002FC00801000000000002074000020801000001E
:10030C000000001000000010740000201C010020F0
:08031C000000001000000010B9
:10032400FEE7000008B503460C4A12685AB10B4AAE
:100334001068033323F003030344094A934206D8A5
:10034400064A136008BD0749044A1160EFE700F04C
:100354008FF90C2303604FF0FF3008BD78000020B4
:10036400001C00201C01002001230360014B0B60D2
:10037400704700BF040000200FB400B583B004AB85
:1003840053F8042B01938021064800F0AFF90028AC
:1003940003DD0146034800F007F803B05DF804EB01
:1003A40004B07047800000204FF0FF307047000019
:1003B40008B500F0C3F8024B024A9A6008BD00BFBA
:1003C40000ED00E00000000008B500F07BF808BD77
:1003D400F8B504460D4617461E462748FFF7CCFFDE
:1003E40021682648FFF7C8FF61682548FFF7C4FF66
:1003F400A1682448FFF7C0FFE1682348FFF7BCFF6A
:1004040021692248FFF7B8FF61692148FFF7B4FF6B
:10041400A1692048FFF7B0FFE1691F48FFF7ACFF6F
:100424001E48FFF7A9FF29461D48FFF7A5FF1D4CED
:10043400E16A1D48FFF7A0FF216B1C48FFF79CFFF2
:10044400E16B1B48FFF798FF15F0800F0AD115F4F4
:10045400004F0CD11748FFF78FFF06991648FFF796
:100464008BFFF8BD39461548FFF786FFEFE73146A5
:100474001348FFF781FFEDE7040F0000140F00009D
:10048400240F0000340F0000440F0000540F00003C
:10049400640F0000740F0000840F0000940F00002C
:1004A400A00F000000ED00E0B00F0000C00F00003E
:1004B400D00F00000010000008100000E00F000042
:1004C400F00F0000184B1B8803F01803182B17D8E3
:1004D400DFE803F00D161616161616162016161655
:1004E40016161616201616161616161625000E4B78
:1004F400B3F8443403F001020C4BD3400C4A1360AC
:10050400094B1B8803F00702094B1B68D340094AB7
:10051400136070474FF40042054B1A60F0E7064B36
:100524001A68034B1A60EBE7002000400024F40033
:10053400100100200C0100201401002008B5002344
:10054400054A1381A2F5B0621380A2F84434938063
:100554009385FFF7B7FF08BD8025004089B201806D
:1005640001207047F0B4224CA488C4F34224072C21
:1005740014D8DFE804F0120406080A0C0E10022452
:100584000CE004240AE0082408E0102406E02024F7
:1005940004E0402402E0802400E00124144DB5F876
:1005A400445415F0010F00D064006501114CB4FBF4
:1005B400F5F6B6FBF1F6B7B207854FF40067B7FB63
:1005C400F5F504FB05F4B4FBF6F4B4FBF1F1A1F585
:1005D400006189B241F4084181840021017103F072
:1005E4003C0302F0030213430373007DF0BC704725
:1005F400002000400024F400037D13F0200F03D0FA
:10060400C9B201700120704700207047007870471C
:1006140008B53C211248FFF7A1FF002303224FF441
:1006240016511048FFF79EFF0E4B1B7D13F0010F70
:10063400FAD00C48FFF7EAFF41B2402903D0094839
:10064400FFF7DAFFF0E7BFF34F8F0749CA6802F4F8
:10065400E062064B1343CB60BFF34F8F00BFFDE74F
:10066400006000400050004000ED00E00400FA0586
:10067400014B1868704700BF0C00002010B5431EE2
:100684000A44914200D110BD11F8014B03F8014F07
:10069400F7E730B5141E05469BB0184605DA8B23E0
:1006A4004FF0FF302B601BB030BD4FF40273ADF838
:1006B4000C300CBF234604F1FF33029305934FF62D
:1006C400FF7300910491ADF80E3002461E9B6946FB
:1006D400284600F075F8431CBCBF8B232B60002C0C
:1006E400E1D00022009B1A70DDE7000007B50093FB
:1006F40013460A46014603480068FFF7CAFF03B0E1
:100704005DF804FB0C0000202DE9F0478E6882465A
:100714009E420C469146984635D88A8912F4906FC9
:1007240031D00223256809696F1A656905EB45050F
:1007340095FBF3F508F101033B449D4238BF1D4688
:10074400530531D5294600F03BFB064650B90C232E
:10075400CAF80030A3894FF0FF3043F04003A3816F
:10076400BDE8F0873A462169FFF788FFA38923F49F
:10077400906343F08003A38126613E44266046468D
:100784006561ED1BA560464528BF4646494632468D
:10079400206800F0AFFAA36800209B1BA3602368C5
:1007A4001E442660BDE8F0872A4600F067FB064633
:1007B4000028E1D12169504600F0B6FAC7E70000ED
:1007C4002DE9F04F9DB003938B8980461C060D469E
:1007D40016460FD50B696BB9402100F0F1FA286079
:1007E400286128B90C23C8F800304FF0FF30C4E06A
:1007F40040236B610023099320238DF82930302393
:100804004FF0010B8DF82A3037463C4614F8013B73
:10081400002B3CD1B7EB060A0BD05346324629468F
:100824004046FFF771FF013000F0A280099B53445A
:1008340009933B78002B00F09B8000234FF0FF329C
:1008440004930793059206938DF853301A93052267
:100854002178504800F040FA671C049BD8B9D906A7
:1008640044BF20228DF853201A0744BF2B228DF851
:10087400532022782A2A16D000210A20079A2746D4
:100884003B780134303B092B50D9C9B111E0252BF9
:10089400C0D02746B9E73F4A3C46801A0BFA00F01D
:1008A40018430490D3E7039A111D12680391002A98
:1008B40001DB079204E0524243F0020307920493DF
:1008C4003B782E2B0DD17B78791C2A2B32D1039BBC
:1008D40002371A1D1B680392002BB8BF4FF0FF3379
:1008E40005932D4C03223978204600F0F5F938B1F0
:1008F4004023001B03FA00F0049B013703430493D5
:100904003978062225487E1C8DF8281000F0E4F979
:10091400002835D0224BFBB9039B073323F0070390
:1009240008330393099B4B4409936DE700FB0232A0
:100934000121A4E700230A24184605930F463A78B8
:100944000131303A092A03D9002BCAD00590C8E7EF
:1009540004FB00200123F1E703AB00932A46114B6B
:1009640004A94046AFF30080B0F1FF3F8146D9D1DE
:10097400AB895B063FF539AF09981DB0BDE8F08F30
:1009840003AB00932A46074B04A9404600F084F8C1
:10099400EAE700BF4C10000052100000561000009F
:1009A400000000000D0700002DE9F04791461F46A6
:1009B4008A680B6906469342B8BF1346C9F80030EB
:1009C40091F843200C46DDF8208012B10133C9F8B8
:1009D40000302368990642BFD9F800300233C9F8C1
:1009E4000030256815F0060507D104F1190AE368FB
:1009F400D9F800209B1A9D422ADB94F843302268E0
:100A0400003318BF012392062FD404F14302394660
:100A14003046C047013022D02368E56803F006035E
:100A2400042B18BF0025D9F800204FF0000908BF97
:100A3400AD1AA368226908BF25EAE5759342C4BFCD
:100A44009B1AED181A344D451BD10020BDE8F087E0
:100A54000123524639463046C047013003D14FF096
:100A6400FF30BDE8F0870135C1E73020E11881F897
:100A740043005A1C94F845102244023382F8431070
:100A8400C3E70123224639463046C0470130E6D049
:100A940009F10109D7E700002DE9F04317460A7E62
:100AA40085B06E2A984606460C460C9B01F1430E0F
:100AB40000F0BC801AD8632A2ED00AD8002A00F08D
:100AC400C880582A00F08A8004F1420584F8422044
:100AD4002AE0642A01D0692AF6D121681A6811F043
:100AE400800F23D0111D1960136827E0732A00F0CA
:100AF400B48008D86F2A2AD0702AE5D10A6842F057
:100B040020020A6003E0752A21D0782ADCD17822F9
:100B14006F4984F8452064E01A6801F14205111D0B
:100B24001960136884F842300123A3E011F0400FE8
:100B340002F104011960D7D0B2F90030002B03DAB6
:100B44002D225B4284F8432062490A2217E0206880
:100B5400196810F0800F03D0081D18600B6806E0B8
:100B640010F0400F01F104001860F7D00B886F2AD1
:100B740014BF0A2208225749002084F843006568FC
:100B8400002DA560C0F29C80206820F00400206045
:100B9400002B3FD1002D40F095807546082A0BD1DB
:100BA4002368DA0708D5236962689A42DEBF3023D6
:100BB40005F8013C05F1FF35AEEB05032361CDF8E3
:100BC40000803B4603AA21463046FFF7EDFE013084
:100BD40055D14FF0FF3005B0BDE8F08381F84520D2
:100BE4003C492268186812F0800F00F104051D606A
:100BF40001D0036802E05506FBD50388D00744BF43
:100C040042F0200222601BB9226822F020022260F6
:100C14001022B1E77546B3FBF2F002FB1033CB5C54
:100C240005F8013D03460028F5D1B7E708681A68BE
:100C340010F0800F496904D0101D18601368196002
:100C440007E010F0400F02F1040018601368F6D0BA
:100C54001980002375462361B1E71A68111D1960D4
:100C6400156800216268284600F036F808B1401B78
:100C7400606063682361002384F843309FE723693D
:100C84002A4639463046C0470130A2D023689B0724
:100C940007D5002504F11909E368039A9B1A9D42BC
:100CA40005DBE068039B9842B8BF184693E701232D
:100CB4004A4639463046C04701308AD00135EBE711
:100CC400002BA7D10B7804F1420584F8423065E784
:100CD4006E1000005D10000010B5C9B202449042CD
:100CE400034601D1002010BD1C7801308C42F6D19E
:100CF400184610BD884210B501EB020303D8421E0A
:100D040099420CD110BD9842F9D28118D21AD3421B
:100D140000D110BD13F8014D01F8014DF7E711F8AA
:100D2400014B02F8014FEBE738B50546002943D0E3
:100D340051F8043C0C1F002BB8BFE41800F0D4F8A1
:100D44001E4A1368104633B9636014602846BDE830
:100D5400384000F0CAB8A3420BD921686218934204
:100D640001BF1A685B685218226063600460EDE793
:100D740013465A680AB1A242FAD919685818A0420F
:100D84000BD120680144581882421960DED11068E2
:100D94005268014419605A60D8E702D90C232B60C9
:100DA400D4E7206821188A4201BF116852680918E3
:100DB400216062605C60C9E738BD00BF00010020AB
:100DC40070B5CD1C25F0030508350C2D38BF0C2556
:100DD400002D064601DBA94203D90C233360002011
:100DE40070BD00F081F8234A1468214691B9224C61
:100DF40023681BB9304600F067F820602946304666
:100E040000F062F8431C26D10C233046336000F016
:100E14006CF8E4E70B685B1B1AD40B2B0FD90B603F
:100E2400CC18CD50304600F060F804F10B00231DBF
:100E340020F00700C31A1BD05A42E25070BD8C4206
:100E44000BBF63684B681360636018BF0C46E9E727
:100E54000C464968CAE7C41C24F00304A04205D028
:100E6400211A304600F030F80130CDD02560D9E7A2
:100E740070BD00BF0001002004010020F8B5074642
:100E840014460E4621B91146BDE8F840FFF798BF55
:100E940022B9FFF749FF25462846F8BD00F026F899
:100EA40084420FD921463846FFF78AFF05460028B9
:100EB400F2D031462246FFF7E1FB31463846FFF7D0
:100EC40033FFE9E73546E7E738B50023054C054627
:100ED40008462360FFF726FA431C02D1236803B1B6
:100EE4002B6038BD080100207047704751F8040C8E
:100EF4000028A0F10400BCBF0B58C01870470000C4
:100F0400537461636B206672616D653A0A00000078
:100F1400205230203D2020253038580A000000009F
:100F2400205231203D2020253038580A000000008E
:100F3400205232203D2020253038580A000000007D
:100F4400205233203D2020253038580A000000006C
:100F540020523132203D20253038580A000000004C
:100F6400204C52203D2020253038580A0000000033
:100F7400205043203D2020253038580A000000002E
:100F840020505352203D20253038580A00000000DC
:100F94004653522F4641523A0A000000204346531A
:100FA40052203D2020253038580A0000204846535E
:100FB40052203D2020253038580A00002044465352
:100FC40052203D2020253038580A00002041465345
:100FD40052203D2020253038580A0000204D4D462F
:100FE4004152203D20253038580A00002042464115
:100FF40052203D2020253038580A00004D69736383
:101004000A000000204C522F4558435F5245545566
:10101400524E3D20253038580A0000005B4861726A
:10102400644661756C745D0A000000005B42757370
:101034004661756C745D0A005B5573616765466152
:10104400756C745D0A000000232D302B2000686C41
:101054004C006566674546470030313233343536D7
:101064003738394142434445460030313233343510
:0B10740036373839616263646566003E
:10108000785634127C000020000000001000002080
:101090000000000000000000000000000000000050
:1010A0000000000000000000000000000000000040
:1010B0000000000000000000000000000000000030
:1010C0000000000000000000000000000000000020
:1010D0000000000000000000000000000000000010
:1010E0000000000000000000000000000000000000
:0410F0003254769868
:04000003000000E118
:00000001FF
