:100000000020002015E101001BE101001FE10100BB
:1000100091E1010095E10100DDE101000000000037
:1000200000000000000000000000000025E20100C8
:1000300029E20100000000002DE2010021E601009C
:1000400041E2010041E2010041E2010041E2010020
:1000500041E2010041E2010041E2010041E2010010
:1000600041E2010041E201000000000041E2010024
:1000700041E2010041E2010041E2010041E20100F0
:1000800041E2010041E2010041E2010041E20100E0
:1000900041E2010041E2010041E2010041E20100D0
:1000A00041E2010041E2010041E2010041E20100C0
:1000B00041E2010041E2010041E2010041E20100B0
:1000C00041E2010041E2010041E2010041E20100A0
:1000D00041E2010041E2010041E2010000000000B4
:020000021000EC
:10E0000000B583B000F0AAF9304B314A1360314AB1
:10E010001360314B314A03E0116819600433043254
:10E020002F498B42F8D32A4B1A682E4B9A4200D0C4
:10E03000FEE7284B1A682C4B9A42F9D1234B2B4A06
:10E0400013602B4A13602B4B02E000221A6004334A
:10E05000294A9342F9D3254B1B6813B9244B1B68FB
:10E0600003B1FEE700F086F9694601A800F022F945
:10E07000224B234CE41AA4100025AC4214DC214BA3
:10E08000214CE41AA4100025AC4213DC009901983D
:10E0900000F04CFB05461D4B1D4CE41AA410002C4F
:10E0A0000EDC284600F0E2F8144B53F82530984770
:10E0B0000135E2E7134B53F8253098470135E3E784
:10E0C000013C124B53F824309847E8E7BABADECA4D
:10E0D00000000020700000200000002084F20100F9
:10E0E0007400002078563412325476987400002060
:10E0F0001C02002074000020200200206CE20100BD
:10E100006CE201006CE201006CE201006CE20100D3
:10E110006CE2010008B5FFF773FF00BEFEE71EF0DA
:10E12000040F0CBFEFF30880EFF309807146414AFA
:10E1300010472DE9F04182B004468846124B5E6BD1
:10E140009F6B9D6A1B6B13F0020F03D00E4BDB6AB3
:10E15000002B0CDB0D4800F0B5F8CDF800803B46F5
:10E1600032462946204600F009F900BEFEE74BF68C
:10E17000AB6100F07DF90028ECD04FF00042024B7B
:10E18000DA6202B0BDE8F08100ED00E00CF20100BF
:10E1900000BEFEE71EF0040F0CBFEFF30880EFF3A4
:10E1A00009807146244A10472DE9F04182B00446A7
:10E1B0008846084B5E6B9F6B9D6A074800F082F8AB
:10E1C000CDF800803B4632462946204600F0D6F87E
:10E1D00000BEFEE700ED00E01CF201001EF0040F9F
:10E1E0000CBFEFF30880EFF309807146134A104724
:10E1F0002DE9F04182B004468846084B5E6B9F6B68
:10E200009D6A074800F05EF8CDF800803B46324634
:10E210002946204600F0B2F800BEFEE700ED00E01F
:10E2200028F2010000BEFEE700BEFEE700BEFEE7EA
:10E230007047000033E10100A9E10100F1E10100B4
:10E24000FEE784F20100000000207400002084F248
:10E2500001000000001000000010740000202002E7
:0CE2600000200000001000000010000072
:10E26C00FEE7000008B503460C4A12685AB10B4A87
:10E27C001068033323F003030344094A934206D87E
:10E28C00064A136008BD0749044A1160EFE700F025
:10E29C00E1FA0C2303604FF0FF3008BD780000203A
:10E2AC00001C00202002002001230360014B0B60A6
:10E2BC00704700BF040000200FB400B583B004AB5E
:10E2CC0053F8042B01938021064800F001FB002831
:10E2DC0003DD0146034800F037F803B05DF804EBAA
:10E2EC0004B07047800000202DE9F04385B004464F
:10E2FC000F4643560BB10E461EE004252846214618
:10E30C00ABBE0446384605B0BDE8F08314F9011BDA
:10E31C0004AA1A4402F8101C0133AB42F6D304AA27
:10E32C001344002203F8102CE9464FF00408404631
:10E33C004946ABBE8046761B002EE3D03546102EE8
:10E34C0028BF10250023E8E708B5FFF7CDFF08BD6F
:10E35C0008B500F0D3F8024B024A9A6008BD00BF22
:10E36C0000ED00E00000000008B500F08BF808BDDF
:10E37C00F8B504460D4617461E462748FFF79CFF86
:10E38C0021682648FFF798FF61682548FFF794FF3E
:10E39C00A1682448FFF790FFE1682348FFF78CFF42
:10E3AC0021692248FFF788FF61692148FFF784FF44
:10E3BC00A1692048FFF780FFE1691F48FFF77CFF48
:10E3CC001E48FFF779FF29461D48FFF775FF1D4CC6
:10E3DC00E16A1D48FFF770FF216B1C48FFF76CFFCB
:10E3EC00E16B1B48FFF768FF15F0800F0AD115F49D
:10E3FC00004F0CD11748FFF75FFF06991648FFF73F
:10E40C005BFFF8BD39461548FFF756FFEFE731467D
:10E41C001348FFF751FFEDE7F0F0010000F10100A8
:10E42C0010F1010020F1010030F1010040F1010078
:10E43C0050F1010060F1010070F1010080F1010068
:10E44C008CF1010000ED00E09CF10100ACF1010049
:10E45C00BCF10100ECF10100F4F10100CCF1010080
:10E46C00DCF1010083691A888A4201D000207047D0
:10E47C000268033A012A03D80233836101207047F2
:10E48C0000207047184B1B8803F01803182B17D863
:10E49C00DFE803F00D1616161616161620161616AD
:10E4AC0016161616201616161616161625000E4BD0
:10E4BC00B3F8443403F001020C4BD3400C4A136004
:10E4CC00094B1B8803F00702094B1B68D340094A10
:10E4DC00136070474FF40042054B1A60F0E7064B8F
:10E4EC001A68034B1A60EBE7002000400024F4008C
:10E4FC00100100200C0100201401002008B500239D
:10E50C00054A1381A2F5B0621380A2F844349380BB
:10E51C009385FFF7B7FF08BD8025004089B20180C5
:10E52C00012070470A4B1B889BB2012B0DD0084B66
:10E53C004FF256421A844FF223121A8482B21A8274
:10E54C00000C98820120188170470020704700BF92
:10E55C0000280040F0B4224CA488C4F34224072CB9
:10E56C0014D8DFE804F0120406080A0C0E1002247A
:10E57C000CE004240AE0082408E0102406E020241F
:10E58C0004E0402402E0802400E00124144DB5F89E
:10E59C00445415F0010F00D064006501114CB4FB1C
:10E5AC00F5F6B6FBF1F6B7B207854FF40067B7FB8B
:10E5BC00F5F504FB05F4B4FBF6F4B4FBF1F1A1F5AD
:10E5CC00006189B241F4084181840021017103F09A
:10E5DC003C0302F0030213430373007DF0BC70474D
:10E5EC00002000400024F400037D13F0200F03D022
:10E5FC00C9B2017001207047002070470078704745
:10E60C00034B1B681BB1024A1368013B1360704734
:10E61C001801002008B5FFF7F3FF08BDE1F7E4BDD2
:10E62C007047000010B4124A93889BB243F0040365
:10E63C0093800F4B1B889BB2012BFAD000220D4C00
:10E64C000BE0042812D023680360094B1B8813F0DD
:10E65C00080FFAD00430043404328A42F1D3044A4D
:10E66C00938803F0FB03938010BC7047024BEBE7DD
:10E67C00002800402001002015E1010070B505467E
:10E68C000E4600240AE02846FFF74CFF054B1B887A
:10E69C009BB2012BFAD005F500750134B442F2DBC4
:10E6AC0070BD00BF0028004052291ED008B5572964
:10E6BC000FD0452901D0002008BDD378907803EB0A
:10E6CC0000235078117903EB0040FFF7D7FF0120AE
:10E6DC0008BDD378917803EB01235278411F03EBEB
:10E6EC000240FFF79FFF012008BDE1F77DBD002030
:10E6FC007047000010B5044600E00139074B1B7D44
:10E70C0013F0010F01D10029F7D109B9002010BD78
:10E71C000248FFF773FF2070012010BD005000402D
:10E72C002DE9F04383B03C214648FFF7F7FE002368
:10E73C0003224FF416514448FFF70CFF4FF4A00688
:10E74C00012505E0FFF76AFF9DF90730082B49D03A
:10E75C0031460DF10700FFF7CDFF0028F2D09DF9EF
:10E76C000730402BF0D14FF0A066EDE7374B19572F
:10E77C003548FFF739FF344B1B7D13F0200FFAD0CF
:10E78C000134172CF2DD002DE2D02F4B1B7D13F042
:10E79C00010FFAD02C48FFF731FF0728F3D12A4B91
:10E7AC001B7D13F0010FFAD02748FFF727FF0E2827
:10E7BC00E9D1254B1B7D13F0010FFAD02248FFF74E
:10E7CC001DFF80460428DEDD1F4B1B7D13F0010F5F
:10E7DC00FAD01D48FFF712FF5FFA80F908EB090722
:10E7EC0000240EE00024CCE7174B1B7D13F0010F27
:10E7FC00FAD01548FFF702FFC0B2154BE05407449E
:10E80C00013408F1FF339C42EEDB0F4B1B7D13F000
:10E81C00010FFAD00C48FFF7F1FE384410F0FF0F4F
:10E82C000AD10B4A49464046FFF73EFF05460621F2
:10E83C000548FFF7D9FEA6E707210348FFF7D4FEEA
:10E84C00A1E700BF006000400050004038F201001A
:10E85C001C010020014B1868704700BF0C00002001
:10E86C0010B5431E0A44914200D110BD11F8014B62
:10E87C0003F8014FF7E730B5141E05469BB0184658
:10E88C0005DA8B234FF0FF302B601BB030BD4FF4FB
:10E89C000273ADF80C300CBF234604F1FF33029326
:10E8AC0005934FF6FF7300910491ADF80E300246BC
:10E8BC001E9B6946284600F075F8431CBCBF8B2391
:10E8CC002B60002CE1D00022009B1A70DDE70000C9
:10E8DC0007B5009313460A46014603480068FFF744
:10E8EC00CAFF03B05DF804FB0C0000202DE9F047D3
:10E8FC008E6882469E420C469146984635D88A8947
:10E90C0012F4906F31D00223256809696F1A65697A
:10E91C0005EB450595FBF3F508F101033B449D42DE
:10E92C0038BF1D46530531D5294600F03BFB064642
:10E93C0050B90C23CAF80030A3894FF0FF3043F0D4
:10E94C004003A381BDE8F0873A462169FFF788FFB1
:10E95C00A38923F4906343F08003A38126613E4492
:10E96C00266046466561ED1BA560464528BF4646B8
:10E97C0049463246206800F0AFFAA36800209B1B82
:10E98C00A36023681E442660BDE8F0872A4600F089
:10E99C0067FB06460028E1D12169504600F0B6FA23
:10E9AC00C7E700002DE9F04F9DB003938B8980469B
:10E9BC001C060D4616460FD50B696BB9402100F0AD
:10E9CC00F1FA2860286128B90C23C8F800304FF000
:10E9DC00FF30C4E040236B610023099320238DF8A2
:10E9EC00293030234FF0010B8DF82A3037463C4646
:10E9FC0014F8013B002B3CD1B7EB060A0BD0534665
:10EA0C00324629464046FFF771FF013000F0A280E4
:10EA1C00099B534409933B78002B00F09B80002307
:10EA2C004FF0FF3204930793059206938DF8533001
:10EA3C001A9305222178504800F040FA671C049B79
:10EA4C00D8B9D90644BF20228DF853201A0744BFE9
:10EA5C002B228DF8532022782A2A16D000210A2046
:10EA6C00079A27463B780134303B092B50D9C9B162
:10EA7C0011E0252BC0D02746B9E73F4A3C46801A07
:10EA8C000BFA00F018430490D3E7039A111D126897
:10EA9C000391002A01DB079204E0524243F0020387
:10EAAC00079204933B782E2B0DD17B78791C2A2B63
:10EABC0032D1039B02371A1D1B680392002BB8BF7F
:10EACC004FF0FF3305932D4C03223978204600F08C
:10EADC00F5F938B14023001B03FA00F0049B013711
:10EAEC00034304933978062225487E1C8DF82810A0
:10EAFC0000F0E4F9002835D0224BFBB9039B073317
:10EB0C0023F0070308330393099B4B4409936DE7E8
:10EB1C0000FB02320121A4E700230A2418460593C6
:10EB2C000F463A780131303A092A03D9002BCAD062
:10EB3C000590C8E704FB00200123F1E703AB009329
:10EB4C002A46114B04A94046AFF30080B0F1FF3FB9
:10EB5C008146D9D1AB895B063FF539AF09981DB019
:10EB6C00BDE8F08F03AB00932A46074B04A940463F
:10EB7C0000F084F8EAE700BF50F2010056F2010001
:10EB8C005AF2010000000000F9E801002DE9F047FD
:10EB9C0091461F468A680B6906469342B8BF1346D6
:10EBAC00C9F8003091F843200C46DDF8208012B1F2
:10EBBC000133C9F800302368990642BFD9F80030F8
:10EBCC000233C9F80030256815F0060507D104F1A9
:10EBDC00190AE368D9F800209B1A9D422ADB94F8A5
:10EBEC0043302268003318BF012392062FD404F15E
:10EBFC00430239463046C047013022D02368E568CD
:10EC0C0003F00603042B18BF0025D9F800204FF0A1
:10EC1C00000908BFAD1AA368226908BF25EAE5758B
:10EC2C009342C4BF9B1AED181A344D451BD10020DA
:10EC3C00BDE8F0870123524639463046C0470130C3
:10EC4C0003D14FF0FF30BDE8F0870135C1E730202C
:10EC5C00E11881F843005A1C94F845102244023301
:10EC6C0082F84310C3E70123224639463046C04799
:10EC7C000130E6D009F10109D7E700002DE9F04396
:10EC8C0017460A7E85B06E2A984606460C460C9BA3
:10EC9C0001F1430E00F0BC801AD8632A2ED00AD89A
:10ECAC00002A00F0C880582A00F08A8004F142053E
:10ECBC0084F842202AE0642A01D0692AF6D121681E
:10ECCC001A6811F0800F23D0111D1960136827E00A
:10ECDC00732A00F0B48008D86F2A2AD0702AE5D1A4
:10ECEC000A6842F020020A6003E0752A21D0782AD3
:10ECFC00DCD178226F4984F8452064E01A6801F170
:10ED0C004205111D1960136884F842300123A3E0F9
:10ED1C0011F0400F02F104011960D7D0B2F90030A4
:10ED2C00002B03DA2D225B4284F8432062490A222D
:10ED3C0017E02068196810F0800F03D0081D1860C8
:10ED4C000B6806E010F0400F01F104001860F7D0DA
:10ED5C000B886F2A14BF0A2208225749002084F816
:10ED6C0043006568002DA560C0F29C80206820F0EF
:10ED7C0004002060002B3FD1002D40F0958075469B
:10ED8C00082A0BD12368DA0708D5236962689A42EE
:10ED9C00DEBF302305F8013C05F1FF35AEEB050372
:10EDAC002361CDF800803B4603AA21463046FFF78D
:10EDBC00EDFE013055D14FF0FF3005B0BDE8F083CA
:10EDCC0081F845203C492268186812F0800F00F148
:10EDDC0004051D6001D0036802E05506FBD50388CD
:10EDEC00D00744BF42F0200222601BB9226822F0F7
:10EDFC00200222601022B1E77546B3FBF2F002FB51
:10EE0C001033CB5C05F8013D03460028F5D1B7E77C
:10EE1C0008681A6810F0800F496904D0101D18603A
:10EE2C001368196007E010F0400F02F1040018603D
:10EE3C001368F6D01980002375462361B1E71A6870
:10EE4C00111D1960156800216268284600F036F81B
:10EE5C0008B1401B606063682361002384F8433071
:10EE6C009FE723692A4639463046C0470130A2D075
:10EE7C0023689B0707D5002504F11909E368039A59
:10EE8C009B1A9D4205DBE068039B9842B8BF18466D
:10EE9C0093E701234A4639463046C04701308AD0B1
:10EEAC000135EBE7002BA7D10B7804F1420584F870
:10EEBC00423065E772F2010061F2010010B5C9B28F
:10EECC0002449042034601D1002010BD1C78013051
:10EEDC008C42F6D1184610BD884210B501EB0203E6
:10EEEC0003D8421E99420CD110BD9842F9D2811818
:10EEFC00D21AD34200D110BD13F8014D01F8014DC7
:10EF0C00F7E711F8014B02F8014FEBE738B505466E
:10EF1C00002943D051F8043C0C1F002BB8BFE41857
:10EF2C0000F0D4F81E4A1368104633B963601460BD
:10EF3C002846BDE8384000F0CAB8A3420BD9216876
:10EF4C006218934201BF1A685B68521822606360B2
:10EF5C000460EDE713465A680AB1A242FAD919685F
:10EF6C005818A0420BD120680144581882421960ED
:10EF7C00DED110685268014419605A60D8E702D992
:10EF8C000C232B60D4E7206821188A4201BF11683A
:10EF9C0052680918216062605C60C9E738BD00BF27
:10EFAC000001002070B5CD1C25F0030508350C2D93
:10EFBC0038BF0C25002D064601DBA94203D90C23D2
:10EFCC003360002070BD00F081F8234A146821469C
:10EFDC0091B9224C23681BB9304600F067F82060C9
:10EFEC002946304600F062F8431C26D10C233046EB
:10EFFC00336000F06CF8E4E70B685B1B1AD40B2B46
:10F00C000FD90B60CC18CD50304600F060F804F1ED
:10F01C000B00231D20F00700C31A1BD05A42E250EC
:10F02C0070BD8C420BBF63684B681360636018BF84
:10F03C000C46E9E70C464968CAE7C41C24F00304F3
:10F04C00A04205D0211A304600F030F80130CDD066
:10F05C002560D9E770BD00BF00010020040100202D
:10F06C00F8B5074614460E4621B91146BDE8F840DE
:10F07C00FFF798BF22B9FFF749FF25462846F8BD90
:10F08C0000F026F884420FD921463846FFF78AFF54
:10F09C0005460028F2D031462246FFF7E1FB314607
:10F0AC003846FFF733FFE9E73546E7E738B5002385
:10F0BC00054C054608462360FFF7D4F8431C02D1E3
:10F0CC00236803B12B6038BD0801002070477047DE
:10F0DC0051F8040C0028A0F10400BCBF0B58C01858
:10F0EC0070470000537461636B206672616D653A02
:10F0FC000A000000205230203D2020253038580ACC
:10F10C0000000000205231203D2020253038580AC4
:10F11C0000000000205232203D2020253038580AB3
:10F12C0000000000205233203D2020253038580AA2
:10F13C000000000020523132203D20253038580A82
:10F14C0000000000204C52203D2020253038580A69
:10F15C0000000000205043203D2020253038580A64
:10F16C000000000020505352203D20253038580A12
:10F17C00000000004653522F4641523A0A0000004C
:10F18C002043465352203D2020253038580A000099
:10F19C002048465352203D2020253038580A000084
:10F1AC002044465352203D2020253038580A000078
:10F1BC002041465352203D2020253038580A00006B
:10F1CC00204D4D464152203D20253038580A000034
:10F1DC002042464152203D2020253038580A00005C
:10F1EC004D6973630A000000204C522F4558435F51
:10F1FC0052455455524E3D20253038580A000000D7
:10F20C005B486172644661756C745D0A00000000B5
:10F21C005B4275734661756C745D0A005B55736176
:10F22C0067654661756C745D0A0000004144754366
:10F23C004D33363020202031323820585858200A8F
:10F24C000D000000232D302B2000686C4C006566EF
:10F25C00674546470030313233343536373839411B
:10F26C004243444546003031323334353637383931
:07F27C006162636465660036
:10F28400785634127C00002000000000100000209A
:10F29400000000000000000000000000000000006A
:10F2A400000000000000000000000000000000005A
:10F2B400000000000000000000000000000000004A
:10F2C400000000000000000000000000000000003A
:10F2D400000000000000000000000000000000002A
:10F2E400000000000000000000000000000000001A
:04F2F4003254769882
:040000031000E00108
:00000001FF
