:1000000000200020E1000000051000001110000099
:100010001510000021100000251000000000000055
:10002000000000000000000000000000311000008F
:1000300035100000000000004110000045100000D5
:100040005110000055100000611000006510000004
:100050007110000075100000811000008510000074
:10006000911000009510000000000000A110000099
:10007000A5100000B1100000B5100000C110000074
:10008000C5100000D1100000D5100000E1100000E4
:10009000E5100000F1100000F51000000111000053
:1000A00005110000111100001511000021110000C0
:1000B0002511000031110000351100004111000030
:1000C00045110000511100005511000061110000A0
:1000D00065110000711100007511000000000000A2
:1000E00008B500F05DF800BEFEE71EF0040F0CBF7F
:1000F000EFF30880EFF309807146264A104708B5F0
:100100000C4B5A6B9A6B9A6A1B6B13F0020F03D05D
:10011000084BDB6A002B01DB00BEFEE74BF6AB6150
:1001200000F0AAF90028F7D04FF00042014BDA6244
:1001300008BD00BF00ED00E000BEFEE71EF0040FAA
:100140000CBFEFF30880EFF309807146124A1047A5
:10015000024B5A6B9A6B9B6A00BEFEE700ED00E013
:100160001EF0040F0CBFEFF30880EFF30980714617
:100170000A4A1047024B5A6B9A6B9B6A00BEFEE715
:1001800000ED00E000BEFEE700BEFEE700BEFEE7B9
:1001900070470000FF0000005101000075010000E1
:1001A00000B583B000F058F9304B314A1360314A42
:1001B0001360314B314A03E0116819600433043293
:1001C0002F498B42F8D32A4B1A682E4B9A4200D003
:1001D000FEE7284B1A682C4B9A42F9D1234B2B4A45
:1001E00013602B4A13602B4B02E000221A60043389
:1001F000294A9342F9D3254B1B6813B9244B1B683A
:1002000003B1FEE700F034F9694601A800F046F9B1
:10021000224B234CE41AA4100025AC4214DC214BE1
:10022000214CE41AA4100025AC4213DC009901987B
:1002300000F03CF905461D4B1D4CE41AA410002C9F
:100240000EDC284600F028F9144B53F82530984767
:100250000135E2E7134B53F8253098470135E3E7C2
:10026000013C124B53F824309847E8E7BABADECA8B
:10027000000000200C00002000000020180D0000ED
:100280001000002078563412325476981000002066
:10029000300100201000002034010020DC020000AA
:1002A000DC020000DC020000DC020000DC020000D6
:0402B000DC0200006C
:1002B400180D00000000002010000020180D0000A0
:1002C4000000001000000010100000203401002085
:0802D400000000100000001002
:1002DC0089B20180012070470A4B1B889BB2012B0D
:1002EC000DD0084B4FF256421A844FF223121A8447
:1002FC0082B21A82000C988201201881704700206B
:10030C00704700BF00280040F0B4224CA488C4F30E
:10031C004224072C14D8DFE804F0120406080A0C57
:10032C000E1002240CE004240AE0082408E0102437
:10033C0006E0202404E0402402E0802400E00124B4
:10034C00144DB5F8445415F0010F00D0640065014C
:10035C00114CB4FBF5F6B6FBF1F6B7B207854FF4CA
:10036C000067B7FBF5F504FB05F4B4FBF6F4B4FB3E
:10037C00F1F1A1F5006189B241F4084181840021B9
:10038C00017103F03C0302F0030213430373007D7D
:10039C00F0BC7047002000400024F400037D13F0F3
:1003AC00200F03D0C9B201700120704700207047A4
:1003BC0000787047184B1B8803F01803182B17D8BC
:1003CC00DFE803F00D16161616161616201616165E
:1003DC0016161616201616161616161625000E4B81
:1003EC00B3F8443403F001020C4BD3400C4A1360B5
:1003FC00094B1B8803F00702094B1B68D340094AC1
:10040C00136070474FF40042054B1A60F0E7064B3F
:10041C001A68034B1A60EBE7002000400024F4003C
:10042C0028000020240000202C00002008B5002308
:10043C00054A1381A2F5B0621380A2F8443493806C
:10044C009385FFF7B7FF08BD8025004008B5FFF77F
:10045C00EDFF024B024A9A6008BD00BF00ED00E0C0
:10046C000000000008B5FFF7A5FF08BD83691A88D6
:10047C008A4201D0002070470268033A012A03D84F
:10048C00023383610120704700207047FEE70000B3
:10049C0001230360014B0B60704700BF0400002078
:1004AC0010B582B000F0E8FB4FF4A00408E0002384
:1004BC008DF8073000F0A6F89DF90730082B0DD009
:1004CC0021460DF1070000F0CBFA0028EFD09DF982
:1004DC000730402BF0D14FF0A064EDE7024800F05C
:1004EC00EBFB00F053FBEBE7000D0000F8B50F46FB
:1004FC000446324B1B889BB2012BFAD02F4A9388AF
:10050C009BB243F00403938000252D4E08E0042C8D
:10051C0043D040F608639C4243D00434043604357F
:10052C00BD4244D2B4F5805FF1D333682360234BD2
:10053C001B8813F0080FFAD0224B1B68002BECD051
:10054C00214B1B68002BE8D09C42E6D14FF4606035
:10055C00FFF7C2FE194B1B889BB2012BFAD01B4A2A
:10056C004FF460631A60154B1B8813F0080FFAD018
:10057C00144B1A6840F604631A60104B1B8813F076
:10058C00080FFAD0104B1A6840F608631A600B4B30
:10059C001B8813F0080FFAD0BFE73268094B1A60BA
:1005AC00BBE7336823F00303074A1360B5E7034A3C
:1005BC00938803F0FB039380F8BD00BF0028004034
:1005CC00340000201C000020180000200100A7BEF1
:1005DC00B0F5805F12DB70B504460E4600250AE0CC
:1005EC002046FFF779FE064B1B889BB2012BFAD0F5
:1005FC0004F500740135B542F2DB70BD704700BFE5
:10060C000028004008B54FF460631A68044B9A4206
:10061C0000D008BD40F604631B689847F9E700BF9B
:10062C000100A7BE2DE9F04FD3B00124002309E04F
:10063C0004EA0002DA4052AD05EB830545F8E02CE4
:10064C0064000133172BF3D90120002309E000EAE1
:10065C000102DA4052AC04EB830444F8802C4000D5
:10066C0001331F2BF3D9519B509A53404F9A53404F
:10067C004E9A53404D9A5A404C994A404B994A4095
:10068C004A994A4049994A40019243984240DDF8C0
:10069C0008B182EA0B02DDF804A182EA0A02DDF855
:1006AC00009182EA0902DDF8FC8082EA0802DDF89A
:1006BC00F8C082EA0C02DDF8F4E082EA0E023C9FFC
:1006CC007A403B9E72403A98424039984240389862
:1006DC0042403798424036984240359842403498D0
:1006EC00424033984240329842401A9842401B98FC
:1006FC0042401C9842401D9842401E9842401F9810
:10070C0042402098424021984240229842402398EF
:10071C004240299842402A9842402B9842402C98BB
:10072C0042402D9842402E9D6A402F9C6240309949
:10073C004A4031994A400292499A1046449A4240A2
:10074C0032984240249842402998424003924A9A57
:10075C004598424033984240259842402A9842405E
:10076C0004924B9A46984240349842402698424014
:10077C002B98424005924C9A4798424035984240FB
:10078C00279842402C98424006924C9A53404B9AE0
:10079C0053404A9A5340499A5340489A534043987D
:1007AC0043408BEA03038AEA030389EA030388EADA
:1007BC0003038CEA03038EEA03037B4073403A98ED
:1007CC0043403998434038984340379843403598D4
:1007DC0043403498434033984340329843401A98EE
:1007EC0043401B9843401C9843401D9843401E981F
:1007FC0043401F98434020984340219843402298FF
:10080C0043402398434028984340299843402A98D2
:10081C0043402B9843402C9843406B4063403098A6
:10082C0043404B4007934E98449B4340379843407A
:10083C0032984340249843406B4008934F98459B13
:10084C004340389843403398434025984340634095
:10085C0009935098469B4340399843403498434001
:10086C0026984340309843400A935198479B434005
:10087C003A984340359843401A9843402798434050
:10088C004B400B9386EA0203369843401B98434037
:10089C00289843400C93499880EA070337984340C3
:1008AC001C984340299843400D934A9880EA0E03C4
:1008BC00389843401D9843402A9843400E934B98D8
:1008CC0080EA0C03399843401E9843402B984340D0
:1008DC000F934C9880EA08033A9843401A98434087
:1008EC001F9843402C98434010934D9880EA09037D
:1008FC0073401B984340209843402D9843401193DC
:10090C004E9880EA0A037B401C9843402198434050
:10091C006B4012934F9880EA0B038EEA03031D98E9
:10092C00434022984340634013935098439B434069
:10093C008CEA03031E98434023984340309843406D
:10094C0014935198449B434088EA03031F984340F7
:10095C00249843404B401593459889EA000320980E
:10096C00434025984340169346988AEA0003219801
:10097C00434026984340179347988BEA00032298EC
:10098C004340279843401893019B53408BEA030B39
:10099C008AEA0B0B89EA0B0B88EA0B0B8CEA0B0B24
:1009AC008EEA0B0B87EA0B0B86EA0B0B3A9B83EA5E
:1009BC000B0B399B83EA0B0B389B83EA0B0B379B96
:1009CC0083EA0B0B369B83EA0B0B359B83EA0B0BF1
:1009DC00349B83EA0B0B339B83EA0B0B329B83EA2E
:1009EC000B0B1A9B83EA0B0B1B9B83EA0B0B1C9BBD
:1009FC0083EA0B0B1D9B83EA0B0B1E9B83EA0B0BF1
:100A0C001F9B83EA0B0B209B83EA0B03219A534019
:100A1C00229A5340289A5340299A53402A9A534079
:100A2C002B9A53402C9A53402D9A53405D406C4066
:100A3C00309B83EA0400414019910122002318469F
:100A4C0006E002A951F8231001FB02005200013309
:100A5C00172BF6D920F07F4053B0BDE8F08F000083
:100A6C0010B5044600E00139074B1B7D13F0010F54
:100A7C0001D10029F7D109B9002010BD0248FFF7B8
:100A8C0097FC2070012010BD0050004070B5054649
:100A9C000E466FF07F40002404E056F82410FFF758
:100AAC00C1FD0134AC42F8D370BD000070B54539BE
:100ABC00122964D8DFE801F00A636363636363633C
:100ACC0063636363635F636363281600D378907812
:100ADC0003EB00235078117903EB0040FFF778FD0E
:100AEC00022070BDD378917803EB01235478451E16
:100AFC00461CFF21915511545155411F03EB0440E5
:100B0C00FFF7F4FC022070BDD478937804EB032437
:100B1C00537804EB0344137804EB0364B4F1004FF3
:100B2C0004D0B4F5805F0FD2022070BD13795179D7
:100B3C0003EB0123917903EB0143D27903EB0263BD
:100B4C00114A1360022070BD1579537905EB03250A
:100B5C00937905EB034521467F20FFF797FF8542EC
:100B6C0001D0FF2070BDD4F8FC21074B1B689A42C2
:100B7C0007D0FF2070BDFFF745FD012070BD02209E
:100B8C0070BD022070BD00BF200000202DE9F04197
:100B9C0082B001240BE04FF4A0010DF10700FFF728
:100BAC005FFF002862D09DF907300E2B0FD0002C70
:100BBC005CD04FF4A0010DF10700FFF751FF0028A6
:100BCC0054D09DF90730072BE5D00024EFE74FF404
:100BDC00A0010DF10700FFF743FF002846D09DF957
:100BEC000770042FE3DD4FF4A0010DF10700FFF7B0
:100BFC0037FFD8B39DF9078007EB080600257B1E4D
:100C0C009D420EDA4FF4A0010DF10700FFF728FF0B
:100C1C0030B19DF80730174AAB541E440135EEE74E
:100C2C0004464FF4A0010DF10700FFF719FFE8B1DE
:100C3C009DF907301E4416F0FF0613D10D4A4146AC
:100C4C003846FFF733FFFF2805D0012808D00620CF
:100C5C0000F024F8ABE7072000F020F83446A6E7B4
:100C6C003446F4E7072000F019F8A0E702B0BDE81D
:100C7C00F08100BF3000002008B53C210548FFF78B
:100C8C0027FB002303224FF416510348FFF73CFBCC
:100C9C0008BD00BF006000400050004008B5014690
:100CAC000448FFF77BFB034B1B7D13F0200FFAD09E
:100CBC0008BD00BF0050004038B50546002409E0CF
:100CCC0029570748FFF76AFB054B1B7D13F0200FD4
:100CDC00FAD00134284600F005F88442F0D338BD30
:100CEC0000500040034613F8012B002AFBD1181AC0
:100CFC0001387047414475434D3336302020203144
:0C0D0C00323820585858200A0D00000012
:100D180078563412140000200000000032547698EF
:0C0E00000000A7BE00100000180D00004C
:101000000148004701480047E1000000E7000000F8
:101010000148004701480047EB000000390100008B
:1010200001480047014800473D0100006101000000
:101030000148004701480047850100008901000080
:1010400001480047014800478D0100009101000060
:101050000148004701480047E1000000E1000000AE
:101060000148004701480047E1000000E10000009E
:101070000148004701480047E1000000E10000008E
:101080000148004701480047E1000000E10000007E
:101090000148004701480047E1000000E10000006E
:1010A0000148004701480047E1000000E10000005E
:1010B0000148004701480047E1000000E10000004E
:1010C0000148004701480047E1000000E10000003E
:1010D0000148004701480047E1000000E10000002E
:1010E0000148004701480047E1000000E10000001E
:1010F0000148004701480047E1000000E10000000E
:101100000148004701480047E1000000E1000000FD
:04000003000001A157
:00000001FF
