:10000000004000200D01000005180000111800003C
:10001000151800002118000025180000000000003D
:100020000000000000000000000000003118000087
:1000300035180000000000004118000045180000BD
:1000400051180000551800006118000065180000E4
:100050007118000075180000811800008518000054
:10006000911800009518000000000000A118000081
:10007000A5180000B1180000B5180000C118000054
:10008000C5180000D1180000D5180000E1180000C4
:10009000E5180000F11800004127000001190000D8
:1000A00005190000111900001519000021190000A0
:1000B0002519000031190000351900004119000010
:1000C0004519000051190000551900006119000080
:1000D00065190000711900007519000081190000F0
:1000E000851900009119000095190000A119000060
:1000F000A51900000000000000000000B119000078
:10010000B119000000000000FEE7FFFF08B500F095
:1001100035F800BEFEE71EF0040F0CBFEFF30880B9
:10012000EFF309807146124A104700BEFEE700BE99
:10013000FEE71EF0040F0CBFEFF30880EFF3098019
:1001400071460C4A104700BEFEE71EF0040F0CBFBC
:10015000EFF30880EFF309807146074A104700BEAD
:10016000FEE700BEFEE700BEFEE700BEFEE770470A
:100170002B010000470100005F01000000B583B0C3
:1001800000F060F9304B314A1360314A1360314B53
:10019000314A03E011681960043304322F498B425D
:1001A000F8D32A4B1A682E4B9A4200D0FEE7284B10
:1001B0001A682C4B9A42F9D1234B2B4A13602B4AD5
:1001C00013602B4B02E000221A600433294A934249
:1001D000F9D3254B1B6813B9244B1B6803B1FEE709
:1001E00000F03CF9694601A800F03EF9224B234C8F
:1001F000E41AA4100025AC4214DC214B214CE41A73
:10020000A4100025AC4213DC0099019800F034F9E9
:1002100005461D4B1D4CE41AA410002C0EDC28468C
:1002200000F020F9144B53F8253098470135E2E7E8
:10023000134B53F8253098470135E3E7013C124B47
:1002400053F824309847E8E7BABADECA0000002025
:100250001400002000000020F40D00001800002011
:100260007856341232547698180000203401002059
:100270001800002038010020B8020000B802000079
:10028000B8020000B8020000B8020000B802000086
:10029000F40D00000000002018000020F40D000004
:1002A000000000100000001018000020380100209D
:0802B000000000100000001026
:1002B80089B2018001207047C9B2017101207047DD
:1002C800C9B20176007E70470A4B1B889BB2012B8E
:1002D8000DD0084B4FF256421A844FF223121A845B
:1002E80082B21A82000C988201201881704700207F
:1002F800704700BF00280040F0B4224CA488C4F323
:100308004224072C14D8DFE804F0120406080A0C6B
:100318000E1002240CE004240AE0082408E010244B
:1003280006E0202404E0402402E0802400E00124C8
:10033800144DB5F8445415F0010F00D06400650160
:10034800114CB4FBF5F6B6FBF1F6B7B207854FF4DE
:100358000067B7FBF5F504FB05F4B4FBF6F4B4FB52
:10036800F1F1A1F5006189B241F4084181840021CD
:10037800017103F03C0302F0030213430373007D91
:10038800F0BC7047002000400024F400037D13F007
:10039800200F03D0C9B201700120704700207047B8
:1003A80000787047184B1B8803F01803182B17D8D0
:1003B800DFE803F00D161616161616162016161672
:1003C80016161616201616161616161625000E4B95
:1003D800B3F8443403F003020C4BD3400C4A1360C7
:1003E800094B1B8803F00702094B1B68D340094AD5
:1003F800136070474FF40042054B1A60F0E7064B54
:100408001A68034B1A60EBE7002000400024F40050
:100418002C000020040000203000002008B5002334
:10042800054A1381A2F5B0621380A2F84434938080
:100438009385FFF7B7FF08BD8025004008B5FFF793
:10044800EDFF024B024A9A6008BD00BF00ED00E0D4
:100458000000000008B5FFF7A5FF08BDFEE7000093
:1004680001230360014B0B60704700BF08000020A8
:1004780010B582B0194A13889BB243F00C0313805D
:1004880013889BB243F0300313800122144B1A6087
:100498000022043B1A6000F0FFFB4FF4A00408E0C0
:1004A80000238DF8073000F0BBF89DF90730082BC2
:1004B8000DD021460DF1070000F0DEFA0028EFD03C
:1004C8009DF90730402BF0D14FF0A064EDE70548C7
:1004D80000F052FC00F066FBEBE700BF0060004054
:1004E80088000C42D40D0000F8B50F460446374B7F
:1004F8001B889BB2012BFAD0344A93889BB243F0F5
:10050800040393800025324E08E0042C4ED041F2BB
:1005180008039C424ED0043404360435BD424FD201
:10052800B4F5C05FF1D333682360284B1B8813F000
:10053800080FFAD0274B1B68002BECD0264B1B6802
:10054800002BE8D023F003039C42E4D14FF4805001
:10055800FFF7BAFE1D4B1B889BB2012BFAD01F4A2E
:1005680041F20C031A60194B1B8813F0080FFAD0DC
:100578001B4A4FF480531A60144B1B8813F0080F62
:10058800FAD0144B1A6841F204031A600F4B1B8807
:1005980013F0080FFAD0104B1A6841F208031A60DA
:1005A8000A4B1B8813F0080FFAD0B4E73268094BDE
:1005B8001A60B0E7336823F00303074A1360AAE719
:1005C800024A938803F0FB039380F8BD002800409B
:1005D800380000202400002020000020EFBEADDEFF
:1005E8000100A7BEB0F5C05F17DB70B505460E4623
:1005F800002400E00134B4420EDAC5F30A03002BEC
:10060800F8D12846FFF760FE044B1B889BB2012BEC
:10061800FAD005F50065EDE770BD70470028004089
:100628004FF480531A68044B9A4200D0704741F245
:10063800040108680047F9E70100A7BE2DE9F04F5B
:10064800D3B00124002309E004EA0002DA4052ADE5
:1006580005EB830545F8E02C64000133172BF3D92B
:100668000120002309E000EA0102DA4052AC04EB61
:10067800830444F8802C400001331F2BF3D9519B8D
:10068800509A53404F9A53404E9A53404D9A5A406D
:100698004C994A404B994A404A994A4049994A409C
:1006A800019243984240DDF808B182EA0B02DDF876
:1006B80004A182EA0A02DDF8009182EA0902DDF863
:1006C800FC8082EA0802DDF8F8C082EA0C02DDF854
:1006D800F4E082EA0E023C9F7A403B9E72403A98D0
:1006E80042403998424038984240379842403698BC
:1006F80042403598424034984240339842403298BC
:1007080042401A9842401B9842401C9842401D980B
:1007180042401E9842401F984240209842402198EB
:1007280042402298424023984240299842402A98C1
:1007380042402B9842402C9842402D9842402E9D92
:100748006A402F9C624030994A4031994A4002924F
:10075800499A1046449A424032984240249842406E
:100768002998424003924A9A459842403398424019
:10077800259842402A98424004924B9A4698424013
:1007880034984240269842402B98424005924C9A11
:100798004798424035984240279842402C9842401A
:1007A80006924C9A53404B9A53404A9A5340499A5E
:1007B8005340489A5340439843408BEA03038AEADC
:1007C800030389EA030388EA03038CEA03038EEA36
:1007D80003037B4073403A98434039984340389824
:1007E80043403798434035984340349843403398C2
:1007F8004340329843401A9843401B9843401C9802
:1008080043401D9843401E9843401F9843402098FA
:1008180043402198434022984340239843402898D6
:100828004340299843402A9843402B9843402C98AA
:1008380043406B406340309843404B4007934E9889
:10084800449B434037984340329843402498434060
:100858006B4008934F98459B4340389843403398E2
:10086800434025984340634009935098469B434032
:100878003998434034984340269843403098434041
:100888000A935198479B43403A98434035984340D0
:100898001A984340279843404B400B9386EA02033B
:1008A800369843401B984340289843400C934998F6
:1008B80080EA0703379843401C98434029984340EF
:1008C8000D934A9880EA0E03389843401D98434098
:1008D8002A9843400E934B9880EA0C03399843407A
:1008E8001E9843402B9843400F934C9880EA080386
:1008F8003A9843401A9843401F9843402C984340E5
:1009080010934D9880EA090373401B984340209840
:1009180043402D98434011934E9880EA0A037B4048
:100928001C984340219843406B4012934F9880EAAB
:100938000B038EEA03031D9843402298434063400B
:1009480013935098439B43408CEA03031E984340FB
:10095800239843403098434014935198449B434014
:1009680088EA03031F984340249843404B4015935B
:10097800459889EA000320984340259843401693F8
:1009880046988AEA000321984340269843401793E3
:1009980047988BEA000322984340279843401893CE
:1009A800019B53408BEA030B8AEA0B0B89EA0B0B7A
:1009B80088EA0B0B8CEA0B0B8EEA0B0B87EA0B0B06
:1009C80086EA0B0B3A9B83EA0B0B399B83EA0B0BEA
:1009D800389B83EA0B0B379B83EA0B0B369B83EA26
:1009E8000B0B359B83EA0B0B349B83EA0B0B339B76
:1009F80083EA0B0B329B83EA0B0B1A9B83EA0B0BE4
:100A08001B9B83EA0B0B1C9B83EA0B0B1D9B83EA46
:100A18000B0B1E9B83EA0B0B1F9B83EA0B0B209B84
:100A280083EA0B03219A5340229A5340289A534051
:100A3800299A53402A9A53402B9A53402C9A534050
:100A48002D9A53405D406C40309B83EA040041403E
:100A5800199101220023184606E002A951F8231033
:100A680001FB020052000133172BF6D920F07F401A
:100A780053B0BDE8F08F000010B5044600E001391E
:100A8800074B1B7D13F0010F01D10029F7D109B9DC
:100A9800002010BD0248FFF783FC2070012010BD24
:100AA8000054004070B505460E466FF07F400024A4
:100AB80004E056F82410FFF7C1FD0134AC42F8D326
:100AC80070BD000070B54539122964D8DFE801F01F
:100AD8000A6363636363636363636363635F63633B
:100AE80063281600D378907803EB002350781179A7
:100AF80003EB0040FFF776FD022070BDD3789178B4
:100B080003EB01235478451E461CFF2191551154CF
:100B18005155411F03EB0440FFF7E6FC022070BD6E
:100B2800D478937804EB0324537804EB03441378C4
:100B380004EB0364B4F1004F04D0B4F5805F0FD226
:100B4800022070BD1379517903EB0123917903EBEE
:100B58000143D27903EB0263114A1360022070BD8E
:100B68001579537905EB0325937905EB0345214660
:100B78007F20FFF797FF854201D0FF2070BDD4F892
:100B8800FC21074B1B689A4207D0FF2070BDFFF776
:100B980047FD012070BD022070BD022070BD00BF5E
:100BA800280000202DE9F04782B001240BE04FF423
:100BB800A0010DF10700FFF75FFF002866D09DF93F
:100BC80007300E2B0FD0002C60D04FF4A0010DF190
:100BD8000700FFF751FF002858D09DF90730072B71
:100BE800E5D00024EFE74FF4A0010DF10700FFF76F
:100BF80043FF00284AD09DF80790C846B9F1040F72
:100C0800E1D94FF4A0010DF10700FFF735FFE8B374
:100C18009DF907A009EB0A06002508F1FF332F46C6
:100C2800AB420ED94FF4A0010DF10700FFF724FFE6
:100C380030B19DF80730174ABB541E440135ECE724
:100C480004464FF4A0010DF10700FFF715FFE8B1C6
:100C58009DF907301E4416F0FF0613D10D4A514680
:100C68004846FFF72FFFFF2805D0012808D00620A7
:100C780000F066F8A7E7072000F062F83446A2E71C
:100C88003446F4E7072000F05BF89CE702B0BDE8C3
:100C9800F08700BF3400002010B5124A938D9BB234
:100CA80023F008039BB29385938F9BB223F4E063F0
:100CB80023F001039BB293870B4C4FF4104120465D
:100CC800FFF7F6FA20212046FFF7F6FA0021204622
:100CD800FFF7F6FA002303224FF4E1310348FFF748
:100CE8000BFB10BD00200040006000400054004095
:100CF80010B500240BE0094B1B6819570848FFF78B
:100D080045FB074B1B7D13F0400FFAD00134034B12
:100D1800186800F053F88442EDD310BD100000208D
:100D28000054004082B04FF4A063019302E0019B9D
:100D3800013B0193019B002BF9D102B070470000E1
:100D480010B50446FFF7EEFF20210948FFF7B8FA6F
:100D5800FFF7CEFF21460748FFF718FB054B1B7D21
:100D680013F0400FFAD000210148FFF7A9FA10BD8F
:100D7800006000400054004038B5054620210D4869
:100D8800FFF79EFAFFF7B4FF002409E029570A4845
:100D9800FFF7FCFA084B1B7D13F0200FFAD0013443
:100DA800284600F00BF88442F0D300210148FFF7F1
:100DB80087FA38BD0060004000540040034613F82D
:100DC800012B002AFBD1181A01387047414475439A
:100DD8004D33363020202031323820585858200AD8
:0C0DE8000D000000626C5F72657073000B
:100DF400785634120024F4001C0000200000000087
:080E0400EC0D00003254769859
:0C1000000000A7BE00100000001000005F
:1018000001480047014800470D01000009010000A0
:101810000148004701480047090100000901000094
:101820000148004701480047090100000901000084
:101830000148004701480047090100000901000074
:101840000148004701480047090100000901000064
:101850000148004701480047090100000901000054
:101860000148004701480047090100000901000044
:101870000148004701480047090100000901000034
:101880000148004701480047090100000901000024
:101890000148004701480047090100000901000014
:1018A0000148004701480047090100000901000004
:1018B00001480047014800470901000009010000F4
:1018C00001480047014800470901000009010000E4
:1018D00001480047014800470901000009010000D4
:1018E00001480047014800470901000009010000C4
:1018F00001480047014800470901000009010000B4
:1019000001480047014800470901000009010000A3
:101910000148004701480047090100000901000093
:101920000148004701480047090100000901000083
:101930000148004701480047090100000901000073
:101940000148004701480047090100000901000063
:101950000148004701480047090100000901000053
:101960000148004701480047090100000901000043
:101970000148004701480047090100000901000033
:101980000148004701480047090100000901000023
:101990000148004701480047090100000901000013
:1019A0000148004701480047090100000901000003
:1019B00001480047014800470901000009010000F3
:040000030000017D7B
:00000001FF
